{
  "contractName": "UniswapAdaptor",
  "abi": [
    {
      "inputs": [
        {
          "name": "_marketplace_address",
          "type": "address"
        },
        {
          "name": "_uniswap_factory_address",
          "type": "address"
        },
        {
          "name": "_datacoin_address",
          "type": "address"
        }
      ],
      "payable": false,
      "stateMutability": "nonpayable",
      "type": "constructor"
    },
    {
      "constant": true,
      "inputs": [
        {
          "name": "from_token",
          "type": "address"
        },
        {
          "name": "to_token",
          "type": "address"
        },
        {
          "name": "amount",
          "type": "uint256"
        }
      ],
      "name": "getConversionRate",
      "outputs": [
        {
          "name": "",
          "type": "uint256"
        }
      ],
      "payable": false,
      "stateMutability": "view",
      "type": "function"
    },
    {
      "constant": false,
      "inputs": [
        {
          "name": "productId",
          "type": "bytes32"
        },
        {
          "name": "minSubscriptionSeconds",
          "type": "uint256"
        },
        {
          "name": "timeWindow",
          "type": "uint256"
        },
        {
          "name": "erc20_address",
          "type": "address"
        },
        {
          "name": "amount",
          "type": "uint256"
        }
      ],
      "name": "buyWithERC20",
      "outputs": [],
      "payable": false,
      "stateMutability": "nonpayable",
      "type": "function"
    },
    {
      "constant": false,
      "inputs": [
        {
          "name": "productId",
          "type": "bytes32"
        },
        {
          "name": "minSubscriptionSeconds",
          "type": "uint256"
        },
        {
          "name": "timeWindow",
          "type": "uint256"
        }
      ],
      "name": "buyWithETH",
      "outputs": [],
      "payable": true,
      "stateMutability": "payable",
      "type": "function"
    }
  ],
  "bytecode": "0x608060405234801561001057600080fd5b506040516060806113ab83398101604090815281516020830151919092015160008054600160a060020a0319908116600160a060020a0395861617825560018054821694861694909417909355600280549093169390911692909217905561132d90819061007e90396000f30060806040526004361061003d5763ffffffff60e060020a6000350416631b04c95781146100425780639030d0f7146100555780639e7fe06a14610082575b600080fd5b6100536004356024356044356100be565b005b34801561006157600080fd5b50610053600435602435604435600160a060020a03606435166084356102b5565b34801561008e57600080fd5b506100ac600160a060020a036004358116906024351660443561076f565b60408051918252519081900360200190f35b6000806100ca85610b17565b915081151561019557600034111561010a5760405133903480156108fc02916000818181858888f19350505050158015610108573d6000803e3d6000fd5b505b60008054604080517f0398751200000000000000000000000000000000000000000000000000000000815260048101899052602481018890523360448201529051600160a060020a039092169263039875129260648084019382900301818387803b15801561017857600080fd5b505af115801561018c573d6000803e3d6000fd5b505050506102ae565b6001546002546040805160e160020a6303795fb1028152600160a060020a039283166004820152905191909216916306f2bf629160248083019260209291908290030181600087803b1580156101ea57600080fd5b505af11580156101fe573d6000803e3d6000fd5b505050506040513d602081101561021457600080fd5b50519050600160a060020a038116151561029e576040805160e560020a62461bcd02815260206004820152602360248201527f636f756c646e742066696e642065786368616e676520666f722044415441206360448201527f6f696e0000000000000000000000000000000000000000000000000000000000606482015290519081900360840190fd5b6102ae8186868686346000610d3b565b5050505050565b60008080600160a060020a0385161515610319576040805160e560020a62461bcd02815260206004820152601660248201527f757365206275795769746845544820696e737465616400000000000000000000604482015290519081900360640190fd5b61032288610b17565b92508215156103b65760008054604080517f03987512000000000000000000000000000000000000000000000000000000008152600481018c9052602481018b90523360448201529051600160a060020a039092169263039875129260648084019382900301818387803b15801561039957600080fd5b505af11580156103ad573d6000803e3d6000fd5b50505050610765565b604080517f23b872dd000000000000000000000000000000000000000000000000000000008152336004820152306024820152604481018690529051869350600160a060020a038416916323b872dd9160648083019260209291908290030181600087803b15801561042757600080fd5b505af115801561043b573d6000803e3d6000fd5b505050506040513d602081101561045157600080fd5b505115156104a9576040805160e560020a62461bcd02815260206004820152601f60248201527f6d7573742070726520617070726f766520746f6b656e207472616e7366657200604482015290519081900360640190fd5b6001546040805160e160020a6303795fb1028152600160a060020a038881166004830152915191909216916306f2bf629160248083019260209291908290030181600087803b1580156104fb57600080fd5b505af115801561050f573d6000803e3d6000fd5b505050506040513d602081101561052557600080fd5b50519050600160a060020a03811615156105af576040805160e560020a62461bcd02815260206004820152602960248201527f636f756c646e742066696e642065786368616e676520666f722065786368616e60448201527f67656420746f6b656e0000000000000000000000000000000000000000000000606482015290519081900360840190fd5b81600160a060020a031663095ea7b38260006040518363ffffffff1660e060020a0281526004018083600160a060020a0316600160a060020a0316815260200182815260200192505050602060405180830381600087803b15801561061357600080fd5b505af1158015610627573d6000803e3d6000fd5b505050506040513d602081101561063d57600080fd5b50511515610683576040805160e560020a62461bcd02815260206004820152600f60248201526000805160206112e2833981519152604482015290519081900360640190fd5b81600160a060020a031663095ea7b382866040518363ffffffff1660e060020a0281526004018083600160a060020a0316600160a060020a0316815260200182815260200192505050602060405180830381600087803b1580156106e657600080fd5b505af11580156106fa573d6000803e3d6000fd5b505050506040513d602081101561071057600080fd5b50511515610756576040805160e560020a62461bcd02815260206004820152600f60248201526000805160206112e2833981519152604482015290519081900360640190fd5b6107658189898987898b610d3b565b5050505050505050565b60008080808080600160a060020a0389811690891614156107da576040805160e560020a62461bcd02815260206004820152601e60248201527f6d757374207370656369667920646966666572656e7420746f6b656e73200000604482015290519081900360640190fd5b600160a060020a03891615156107f257869450610972565b6001546040805160e160020a6303795fb1028152600160a060020a038c81166004830152915191909216916306f2bf629160248083019260209291908290030181600087803b15801561084457600080fd5b505af1158015610858573d6000803e3d6000fd5b505050506040513d602081101561086e57600080fd5b50519350600160a060020a03841615156108f7576040805160e560020a62461bcd028152602060048201526024808201527f636f756c646e742066696e642065786368616e676520666f722066726f6d5f7460448201527f6f6b656e00000000000000000000000000000000000000000000000000000000606482015290519081900360840190fd5b83925082600160a060020a03166395b68fe7886040518263ffffffff1660e060020a02815260040180828152602001915050602060405180830381600087803b15801561094357600080fd5b505af1158015610957573d6000803e3d6000fd5b505050506040513d602081101561096d57600080fd5b505194505b600160a060020a038816151561098a57849550610b0b565b6001546040805160e160020a6303795fb1028152600160a060020a038b81166004830152915191909216916306f2bf629160248083019260209291908290030181600087803b1580156109dc57600080fd5b505af11580156109f0573d6000803e3d6000fd5b505050506040513d6020811015610a0657600080fd5b50519150600160a060020a0382161515610a90576040805160e560020a62461bcd02815260206004820152602260248201527f636f756c646e742066696e642065786368616e676520666f7220746f5f746f6b60448201527f656e000000000000000000000000000000000000000000000000000000000000606482015290519081900360840190fd5b81905080600160a060020a031663cd7724c3866040518263ffffffff1660e060020a02815260040180828152602001915050602060405180830381600087803b158015610adc57600080fd5b505af1158015610af0573d6000803e3d6000fd5b505050506040513d6020811015610b0657600080fd5b505195505b50505050509392505050565b60008054604080517f3a20e9df000000000000000000000000000000000000000000000000000000008152600481018590529051839283928392600160a060020a0390921691633a20e9df91602480820192869290919082900301818387803b158015610b8357600080fd5b505af1158015610b97573d6000803e3d6000fd5b505050506040513d6000823e601f3d908101601f1916820160405260e0811015610bc057600080fd5b810190808051640100000000811115610bd857600080fd5b82016020810184811115610beb57600080fd5b8151640100000000811182820187101715610c0557600080fd5b5050506020810151606082015160809092015190965090945092505050600160a060020a0383161515610c82576040805160e560020a62461bcd02815260206004820152600960248201527f6e6f7420666f756e640000000000000000000000000000000000000000000000604482015290519081900360640190fd5b6000546040517fbee7d43300000000000000000000000000000000000000000000000000000000815260016004820181815260248301869052600160a060020a039093169263bee7d43392869186916044018285811115610cdf57fe5b60ff1681526020019350505050602060405180830381600087803b158015610d0657600080fd5b505af1158015610d1a573d6000803e3d6000fd5b505050506040513d6020811015610d3057600080fd5b505195945050505050565b600080600080610d4b878a6112a8565b600254604080517f70a0823100000000000000000000000000000000000000000000000000000000815230600482015290519296508d9550600160a060020a03909116916370a08231916024808201926020929091908290030181600087803b158015610db757600080fd5b505af1158015610dcb573d6000803e3d6000fd5b505050506040513d6020811015610de157600080fd5b50519150600160a060020a0385161515610e9b57604080517fad65d76d00000000000000000000000000000000000000000000000000000000815260048101869052428a0160248201523060448201529051600160a060020a0385169163ad65d76d91899160648082019260209290919082900301818588803b158015610e6757600080fd5b505af1158015610e7b573d6000803e3d6000fd5b50505050506040513d6020811015610e9257600080fd5b50519050610f55565b600254604080517ff552d91b000000000000000000000000000000000000000000000000000000008152600481018990526024810187905260016044820152428b016064820152306084820152600160a060020a0392831660a482015290519185169163f552d91b9160c4808201926020929091908290030181600087803b158015610f2657600080fd5b505af1158015610f3a573d6000803e3d6000fd5b505050506040513d6020811015610f5057600080fd5b505190505b600254604080517f70a08231000000000000000000000000000000000000000000000000000000008152306004820152905183928592600160a060020a03909116916370a08231916024808201926020929091908290030181600087803b158015610fbf57600080fd5b505af1158015610fd3573d6000803e3d6000fd5b505050506040513d6020811015610fe957600080fd5b50510310801590610ffa5750838110155b1515611050576040805160e560020a62461bcd02815260206004820152601c60248201527f6e6f7420656e6f7567682064617461636f696e20726563656976656400000000604482015290519081900360640190fd5b60025460008054604080517f095ea7b3000000000000000000000000000000000000000000000000000000008152600160a060020a039283166004820152602481018490529051919093169263095ea7b39260448083019360209390929083900390910190829087803b1580156110c657600080fd5b505af11580156110da573d6000803e3d6000fd5b505050506040513d60208110156110f057600080fd5b50511515611136576040805160e560020a62461bcd02815260206004820152600f60248201526000805160206112e2833981519152604482015290519081900360640190fd5b60025460008054604080517f095ea7b3000000000000000000000000000000000000000000000000000000008152600160a060020a039283166004820152602481018690529051919093169263095ea7b39260448083019360209390929083900390910190829087803b1580156111ac57600080fd5b505af11580156111c0573d6000803e3d6000fd5b505050506040513d60208110156111d657600080fd5b5051151561121c576040805160e560020a62461bcd02815260206004820152600f60248201526000805160206112e2833981519152604482015290519081900360640190fd5b600054600160a060020a031663039875128b898481151561123957fe5b6040805160e060020a63ffffffff87160281526004810194909452919004602483015233604483015251606480830192600092919082900301818387803b15801561128357600080fd5b505af1158015611297573d6000803e3d6000fd5b505050505050505050505050505050565b6000808315156112bb57600091506112da565b508282028284828115156112cb57fe5b04146112d657600080fd5b8091505b50929150505600617070726f76616c206661696c65640000000000000000000000000000000000a165627a7a72305820425b3986fc00a20e68caf9726d5c08a9303b92c40be37dd07997de625203f3c90029",
  "source": "pragma solidity ^0.4.25;\n\ncontract IMarketplace {\n    enum ProductState {\n        NotDeployed,                // non-existent or deleted\n        Deployed                    // created or redeployed\n    }\n\n    enum Currency {\n        DATA,                       // \"token wei\" (10^-18 DATA)\n        USD                         // attodollars (10^-18 USD)\n    }\n\n    function getProduct(bytes32 id) public view returns (string name, address owner, address beneficiary, uint pricePerSecond, Currency currency, uint minimumSubscriptionSeconds, ProductState state) {}\n    function getSubscription(bytes32 productId, address subscriber) public view returns (bool isValid, uint endTimestamp) {}\n    function getPriceInData(uint subscriptionSeconds, uint price, Currency unit) public view returns (uint datacoinAmount) {}\n    function buyFor(bytes32 productId, uint subscriptionSeconds, address recipient) public {}\n}\n\ncontract IERC20Token {\n    // these functions aren't abstract since the compiler emits automatically generated getter functions as external\n    function name() public view returns (string) {}\n    function symbol() public view returns (string) {}\n    function decimals() public view returns (uint8) {}\n    function totalSupply() public view returns (uint256) {}\n    function balanceOf(address _owner) public view returns (uint256) { _owner; }\n    function allowance(address _owner, address _spender) public view returns (uint256) { _owner; _spender; }\n\n    function transfer(address _to, uint256 _value) public returns (bool success);\n    function transferFrom(address _from, address _to, uint256 _value) public returns (bool success);\n    function approve(address _spender, uint256 _value) public returns (bool success);\n}\n\n\n//from https://docs.uniswap.io/smart-contract-integration/interface:\ncontract IUniswapFactory {\n    // Public Variables\n    address public exchangeTemplate;\n    uint256 public tokenCount;\n    // Create Exchange\n    function createExchange(address token) external returns (address exchange);\n    // Get Exchange and Token Info\n    function getExchange(address token) external view returns (address exchange);\n    function getToken(address exchange) external view returns (address token);\n    function getTokenWithId(uint256 tokenId) external view returns (address token);\n    // Never use\n    function initializeFactory(address template) external;\n}\ncontract IUniswapExchange{\n    // Address of ERC20 token sold on this exchange\n    function tokenAddress() external view returns (address token);\n    // Address of Uniswap Factory\n    function factoryAddress() external view returns (address factory);\n    // Provide Liquidity\n    function addLiquidity(uint256 min_liquidity, uint256 max_tokens, uint256 deadline) external payable returns (uint256);\n    function removeLiquidity(uint256 amount, uint256 min_eth, uint256 min_tokens, uint256 deadline) external returns (uint256, uint256);\n    // Get Prices\n    function getEthToTokenInputPrice(uint256 eth_sold) external view returns (uint256 tokens_bought);\n    function getEthToTokenOutputPrice(uint256 tokens_bought) external view returns (uint256 eth_sold);\n    function getTokenToEthInputPrice(uint256 tokens_sold) external view returns (uint256 eth_bought);\n    function getTokenToEthOutputPrice(uint256 eth_bought) external view returns (uint256 tokens_sold);\n    // Trade ETH to ERC20\n    function ethToTokenSwapInput(uint256 min_tokens, uint256 deadline) external payable returns (uint256  tokens_bought);\n    function ethToTokenTransferInput(uint256 min_tokens, uint256 deadline, address recipient) external payable returns (uint256  tokens_bought);\n    function ethToTokenSwapOutput(uint256 tokens_bought, uint256 deadline) external payable returns (uint256  eth_sold);\n    function ethToTokenTransferOutput(uint256 tokens_bought, uint256 deadline, address recipient) external payable returns (uint256  eth_sold);\n    // Trade ERC20 to ETH\n    function tokenToEthSwapInput(uint256 tokens_sold, uint256 min_eth, uint256 deadline) external returns (uint256  eth_bought);\n    function tokenToEthTransferInput(uint256 tokens_sold, uint256 min_tokens, uint256 deadline, address recipient) external returns (uint256  eth_bought);\n    function tokenToEthSwapOutput(uint256 eth_bought, uint256 max_tokens, uint256 deadline) external returns (uint256  tokens_sold);\n    function tokenToEthTransferOutput(uint256 eth_bought, uint256 max_tokens, uint256 deadline, address recipient) external returns (uint256  tokens_sold);\n    // Trade ERC20 to ERC20\n    function tokenToTokenSwapInput(uint256 tokens_sold, uint256 min_tokens_bought, uint256 min_eth_bought, uint256 deadline, address token_addr) external returns (uint256  tokens_bought);\n    function tokenToTokenTransferInput(uint256 tokens_sold, uint256 min_tokens_bought, uint256 min_eth_bought, uint256 deadline, address recipient, address token_addr) external returns (uint256  tokens_bought);\n    function tokenToTokenSwapOutput(uint256 tokens_bought, uint256 max_tokens_sold, uint256 max_eth_sold, uint256 deadline, address token_addr) external returns (uint256  tokens_sold);\n    function tokenToTokenTransferOutput(uint256 tokens_bought, uint256 max_tokens_sold, uint256 max_eth_sold, uint256 deadline, address recipient, address token_addr) external returns (uint256  tokens_sold);\n    // Trade ERC20 to Custom Pool\n    function tokenToExchangeSwapInput(uint256 tokens_sold, uint256 min_tokens_bought, uint256 min_eth_bought, uint256 deadline, address exchange_addr) external returns (uint256  tokens_bought);\n    function tokenToExchangeTransferInput(uint256 tokens_sold, uint256 min_tokens_bought, uint256 min_eth_bought, uint256 deadline, address recipient, address exchange_addr) external returns (uint256  tokens_bought);\n    function tokenToExchangeSwapOutput(uint256 tokens_bought, uint256 max_tokens_sold, uint256 max_eth_sold, uint256 deadline, address exchange_addr) external returns (uint256  tokens_sold);\n    function tokenToExchangeTransferOutput(uint256 tokens_bought, uint256 max_tokens_sold, uint256 max_eth_sold, uint256 deadline, address recipient, address exchange_addr) external returns (uint256  tokens_sold);\n    // ERC20 comaptibility for liquidity tokens\n    bytes32 public name;\n    bytes32 public symbol;\n    uint256 public decimals;\n    function transfer(address _to, uint256 _value) external returns (bool);\n    function transferFrom(address _from, address _to, uint256 value) external returns (bool);\n    function approve(address _spender, uint256 _value) external returns (bool);\n    function allowance(address _owner, address _spender) external view returns (uint256);\n    function balanceOf(address _owner) external view returns (uint256);\n    // Never use\n    function setup(address token_addr) external;\n}\n\ncontract UniswapAdaptor {\n//    using SafeMath for uint256;\n\n    IMarketplace marketplace;\n    IUniswapFactory uniswap_factory;\n    IERC20Token datacoin;\n    constructor(address _marketplace_address, address _uniswap_factory_address, address _datacoin_address) public {\n        marketplace = IMarketplace(_marketplace_address);\n        uniswap_factory = IUniswapFactory(_uniswap_factory_address);\n        datacoin = IERC20Token(_datacoin_address);\n    }\n    function mul(uint256 a, uint256 b) internal pure returns (uint256) {\n        // Gas optimization: this is cheaper than requiring 'a' not being zero, but the\n        // benefit is lost if 'b' is also tested.\n        // See: https://github.com/OpenZeppelin/openzeppelin-solidity/pull/522\n        if (a == 0) {\n            return 0;\n        }\n\n        uint256 c = a * b;\n        require(c / a == b);\n\n        return c;\n    }\n    /*\n        token address 0x0 means ETH\n    */\n    \n    function getConversionRate(address from_token, address to_token, uint amount) public view returns (uint){\n        require(from_token != to_token, \"must specify different tokens \");\n        uint eth_amount;\n        if(from_token == 0x0){\n            eth_amount = amount;\n        }\n        else{\n            address from_token_exchange = uniswap_factory.getExchange(from_token);\n            require(from_token_exchange != 0x0, \"couldnt find exchange for from_token\");\n            IUniswapExchange exfrom = IUniswapExchange(from_token_exchange);\n            eth_amount = exfrom.getTokenToEthInputPrice(amount);\n        }\n        if(to_token == 0x0){\n            return eth_amount;\n        }\n        else{\n            address to_token_exchange = uniswap_factory.getExchange(to_token);\n            require(to_token_exchange != 0x0, \"couldnt find exchange for to_token\");\n            IUniswapExchange exto = IUniswapExchange(to_token_exchange);\n            return exto.getEthToTokenInputPrice(eth_amount);\n        }\n    }\n    \n\n    function _getPricePerSecondData(bytes32 productId) internal view returns (uint) {\n        (, address owner,, uint pricePerSecond, IMarketplace.Currency priceCurrency,,) = marketplace.getProduct(productId);\n        require(owner != 0x0, \"not found\");\n        return marketplace.getPriceInData(1, pricePerSecond, priceCurrency);\n    }\n    function buyWithERC20(bytes32 productId, uint minSubscriptionSeconds,uint timeWindow, address erc20_address, uint amount) public {\n        require(erc20_address != 0x0, \"use buyWithETH instead\");\n        uint pricePerSecondData = _getPricePerSecondData(productId);\n        if(pricePerSecondData == 0x0){\n            //subscription is free. return payment and subscribe\n            marketplace.buyFor(productId,minSubscriptionSeconds,msg.sender);\n            return;\n        }\n        IERC20Token fromToken = IERC20Token(erc20_address);\n        require(fromToken.transferFrom(msg.sender,address(this),amount), \"must pre approve token transfer\");\n        // use the exchange of the received token. this exchange will query its factory to find\n        // the DATAcoin exchange in tokenToTokenTransferInput() in _buyWithUniswap()\n        address exadd = uniswap_factory.getExchange(erc20_address);\n        require(exadd != 0x0, \"couldnt find exchange for exchanged token\");\n        require(fromToken.approve(exadd, 0), \"approval failed\");\n        require(fromToken.approve(exadd, amount), \"approval failed\");\n        _buyWithUniswap(exadd, productId, minSubscriptionSeconds, timeWindow, pricePerSecondData, amount, erc20_address);\n    }\n\n    function buyWithETH(bytes32 productId, uint minSubscriptionSeconds,uint timeWindow) public payable{\n        uint pricePerSecondData = _getPricePerSecondData(productId);\n        if(pricePerSecondData == 0x0){\n            //subscription is free. return payment and subscribe\n            if(msg.value > 0x0){\n                msg.sender.transfer(msg.value);\n            }\n            marketplace.buyFor(productId,minSubscriptionSeconds,msg.sender);\n            return;\n        }\n        address exadd = uniswap_factory.getExchange(address(datacoin));\n        require(exadd != 0x0, \"couldnt find exchange for DATA coin\");\n        _buyWithUniswap(exadd, productId, minSubscriptionSeconds, timeWindow, pricePerSecondData, msg.value,0x0);\n    }\n    /**\n        from_token = 0x0 means ETH\n     */\n    function _buyWithUniswap(address exadd, bytes32 productId, uint minSubscriptionSeconds,uint timeWindow, uint pricePerSecondData,uint amount,address from_token) internal{\n        uint price = mul(pricePerSecondData,minSubscriptionSeconds);\n        IUniswapExchange ex = IUniswapExchange(exadd);\n        uint256 datacoin_before_transfer = datacoin.balanceOf(address(this));\n        // TransferInput should revert if it cant get at least 'price' amount of DATAcoin \n        uint256 received_datacoin;\n        if(from_token == 0x0){\n            received_datacoin = ex.ethToTokenTransferInput.value(amount)(price,now + timeWindow, address(this));\n        }\n        else{\n            received_datacoin = ex.tokenToTokenTransferInput(amount, price, 1, now + timeWindow, address(this), address(datacoin));\n        }\n        require(datacoin.balanceOf(address(this)) - datacoin_before_transfer >= received_datacoin && received_datacoin >= price, \"not enough datacoin received\");\n        require(datacoin.approve(address(marketplace),0),\"approval failed\");\n        require(datacoin.approve(address(marketplace),received_datacoin),\"approval failed\");\n        marketplace.buyFor(productId,received_datacoin / pricePerSecondData,msg.sender);\n    }\n}\n",
  "sourcePath": "/home/heynow/streamr/marketplace-contracts/contracts/UniswapAdaptor.sol",
  "compiler": {
    "name": "solc",
    "version": "0.4.25+commit.59dbf8f1.Emscripten.clang"
  },
  "schemaVersion": "2.0.2",
  "updatedAt": "2019-11-12T09:55:12.679Z"
}