{
  "contractName": "UniswapAdaptor",
  "abi": [
    {
      "inputs": [
        {
          "name": "_marketplace_address",
          "type": "address"
        },
        {
          "name": "_uniswap_factory_address",
          "type": "address"
        },
        {
          "name": "_datacoin_address",
          "type": "address"
        }
      ],
      "payable": false,
      "stateMutability": "nonpayable",
      "type": "constructor"
    },
    {
      "constant": true,
      "inputs": [
        {
          "name": "from_token",
          "type": "address"
        },
        {
          "name": "to_token",
          "type": "address"
        },
        {
          "name": "input_amount",
          "type": "uint256"
        }
      ],
      "name": "getConversionRateInput",
      "outputs": [
        {
          "name": "",
          "type": "uint256"
        }
      ],
      "payable": false,
      "stateMutability": "view",
      "type": "function"
    },
    {
      "constant": true,
      "inputs": [
        {
          "name": "from_token",
          "type": "address"
        },
        {
          "name": "to_token",
          "type": "address"
        },
        {
          "name": "output_amount",
          "type": "uint256"
        }
      ],
      "name": "getConversionRateOutput",
      "outputs": [
        {
          "name": "",
          "type": "uint256"
        }
      ],
      "payable": false,
      "stateMutability": "view",
      "type": "function"
    },
    {
      "constant": false,
      "inputs": [
        {
          "name": "productId",
          "type": "bytes32"
        },
        {
          "name": "minSubscriptionSeconds",
          "type": "uint256"
        },
        {
          "name": "timeWindow",
          "type": "uint256"
        },
        {
          "name": "erc20_address",
          "type": "address"
        },
        {
          "name": "amount",
          "type": "uint256"
        }
      ],
      "name": "buyWithERC20",
      "outputs": [],
      "payable": false,
      "stateMutability": "nonpayable",
      "type": "function"
    },
    {
      "constant": false,
      "inputs": [
        {
          "name": "productId",
          "type": "bytes32"
        },
        {
          "name": "minSubscriptionSeconds",
          "type": "uint256"
        },
        {
          "name": "timeWindow",
          "type": "uint256"
        }
      ],
      "name": "buyWithETH",
      "outputs": [],
      "payable": true,
      "stateMutability": "payable",
      "type": "function"
    }
  ],
  "bytecode": "0x608060405234801561001057600080fd5b5060405160608061174d83398101604090815281516020830151919092015160008054600160a060020a0319908116600160a060020a039586161782556001805482169486169490941790935560028054909316939091169290921790556116cf90819061007e90396000f3006080604052600436106100485763ffffffff60e060020a6000350416631b04c957811461004d578063505069c81461006057806385b3b9771461009c5780639030d0f7146100c6575b600080fd5b61005e6004356024356044356100f3565b005b34801561006c57600080fd5b5061008a600160a060020a03600435811690602435166044356102ea565b60408051918252519081900360200190f35b3480156100a857600080fd5b5061008a600160a060020a0360043581169060243516604435610692565b3480156100d257600080fd5b5061005e600435602435604435600160a060020a03606435166084356109ff565b6000806100ff85610eb9565b91508115156101ca57600034111561013f5760405133903480156108fc02916000818181858888f1935050505015801561013d573d6000803e3d6000fd5b505b60008054604080517f0398751200000000000000000000000000000000000000000000000000000000815260048101899052602481018890523360448201529051600160a060020a039092169263039875129260648084019382900301818387803b1580156101ad57600080fd5b505af11580156101c1573d6000803e3d6000fd5b505050506102e3565b6001546002546040805160e160020a6303795fb1028152600160a060020a039283166004820152905191909216916306f2bf629160248083019260209291908290030181600087803b15801561021f57600080fd5b505af1158015610233573d6000803e3d6000fd5b505050506040513d602081101561024957600080fd5b50519050600160a060020a03811615156102d3576040805160e560020a62461bcd02815260206004820152602360248201527f636f756c646e742066696e642065786368616e676520666f722044415441206360448201527f6f696e0000000000000000000000000000000000000000000000000000000000606482015290519081900360840190fd5b6102e381868686863460006110dd565b5050505050565b60008080808080600160a060020a038981169089161415610355576040805160e560020a62461bcd02815260206004820152601e60248201527f6d757374207370656369667920646966666572656e7420746f6b656e73200000604482015290519081900360640190fd5b600160a060020a038816151561036d578694506104ee565b6001546040805160e160020a6303795fb1028152600160a060020a038b81166004830152915191909216916306f2bf629160248083019260209291908290030181600087803b1580156103bf57600080fd5b505af11580156103d3573d6000803e3d6000fd5b505050506040513d60208110156103e957600080fd5b50519350600160a060020a0384161515610473576040805160e560020a62461bcd02815260206004820152602260248201527f636f756c646e742066696e642065786368616e676520666f7220746f5f746f6b60448201527f656e000000000000000000000000000000000000000000000000000000000000606482015290519081900360840190fd5b83925082600160a060020a03166359e94862886040518263ffffffff1660e060020a02815260040180828152602001915050602060405180830381600087803b1580156104bf57600080fd5b505af11580156104d3573d6000803e3d6000fd5b505050506040513d60208110156104e957600080fd5b505194505b600160a060020a038916151561050657849550610686565b6001546040805160e160020a6303795fb1028152600160a060020a038c81166004830152915191909216916306f2bf629160248083019260209291908290030181600087803b15801561055857600080fd5b505af115801561056c573d6000803e3d6000fd5b505050506040513d602081101561058257600080fd5b50519150600160a060020a038216151561060b576040805160e560020a62461bcd028152602060048201526024808201527f636f756c646e742066696e642065786368616e676520666f722066726f6d5f7460448201527f6f6b656e00000000000000000000000000000000000000000000000000000000606482015290519081900360840190fd5b81905080600160a060020a0316632640f62c866040518263ffffffff1660e060020a02815260040180828152602001915050602060405180830381600087803b15801561065757600080fd5b505af115801561066b573d6000803e3d6000fd5b505050506040513d602081101561068157600080fd5b505195505b50505050509392505050565b60008080808080600160a060020a0389811690891614156106fd576040805160e560020a62461bcd02815260206004820152601e60248201527f6d757374207370656369667920646966666572656e7420746f6b656e73200000604482015290519081900360640190fd5b600160a060020a038916151561071557869450610895565b6001546040805160e160020a6303795fb1028152600160a060020a038c81166004830152915191909216916306f2bf629160248083019260209291908290030181600087803b15801561076757600080fd5b505af115801561077b573d6000803e3d6000fd5b505050506040513d602081101561079157600080fd5b50519350600160a060020a038416151561081a576040805160e560020a62461bcd028152602060048201526024808201527f636f756c646e742066696e642065786368616e676520666f722066726f6d5f7460448201527f6f6b656e00000000000000000000000000000000000000000000000000000000606482015290519081900360840190fd5b83925082600160a060020a03166395b68fe7886040518263ffffffff1660e060020a02815260040180828152602001915050602060405180830381600087803b15801561086657600080fd5b505af115801561087a573d6000803e3d6000fd5b505050506040513d602081101561089057600080fd5b505194505b600160a060020a03881615156108ad57849550610686565b6001546040805160e160020a6303795fb1028152600160a060020a038b81166004830152915191909216916306f2bf629160248083019260209291908290030181600087803b1580156108ff57600080fd5b505af1158015610913573d6000803e3d6000fd5b505050506040513d602081101561092957600080fd5b50519150600160a060020a03821615156109b3576040805160e560020a62461bcd02815260206004820152602260248201527f636f756c646e742066696e642065786368616e676520666f7220746f5f746f6b60448201527f656e000000000000000000000000000000000000000000000000000000000000606482015290519081900360840190fd5b81905080600160a060020a031663cd7724c3866040518263ffffffff1660e060020a02815260040180828152602001915050602060405180830381600087803b15801561065757600080fd5b60008080600160a060020a0385161515610a63576040805160e560020a62461bcd02815260206004820152601660248201527f757365206275795769746845544820696e737465616400000000000000000000604482015290519081900360640190fd5b610a6c88610eb9565b9250821515610b005760008054604080517f03987512000000000000000000000000000000000000000000000000000000008152600481018c9052602481018b90523360448201529051600160a060020a039092169263039875129260648084019382900301818387803b158015610ae357600080fd5b505af1158015610af7573d6000803e3d6000fd5b50505050610eaf565b604080517f23b872dd000000000000000000000000000000000000000000000000000000008152336004820152306024820152604481018690529051869350600160a060020a038416916323b872dd9160648083019260209291908290030181600087803b158015610b7157600080fd5b505af1158015610b85573d6000803e3d6000fd5b505050506040513d6020811015610b9b57600080fd5b50511515610bf3576040805160e560020a62461bcd02815260206004820152601f60248201527f6d7573742070726520617070726f766520746f6b656e207472616e7366657200604482015290519081900360640190fd5b6001546040805160e160020a6303795fb1028152600160a060020a038881166004830152915191909216916306f2bf629160248083019260209291908290030181600087803b158015610c4557600080fd5b505af1158015610c59573d6000803e3d6000fd5b505050506040513d6020811015610c6f57600080fd5b50519050600160a060020a0381161515610cf9576040805160e560020a62461bcd02815260206004820152602960248201527f636f756c646e742066696e642065786368616e676520666f722065786368616e60448201527f67656420746f6b656e0000000000000000000000000000000000000000000000606482015290519081900360840190fd5b81600160a060020a031663095ea7b38260006040518363ffffffff1660e060020a0281526004018083600160a060020a0316600160a060020a0316815260200182815260200192505050602060405180830381600087803b158015610d5d57600080fd5b505af1158015610d71573d6000803e3d6000fd5b505050506040513d6020811015610d8757600080fd5b50511515610dcd576040805160e560020a62461bcd02815260206004820152600f6024820152600080516020611684833981519152604482015290519081900360640190fd5b81600160a060020a031663095ea7b382866040518363ffffffff1660e060020a0281526004018083600160a060020a0316600160a060020a0316815260200182815260200192505050602060405180830381600087803b158015610e3057600080fd5b505af1158015610e44573d6000803e3d6000fd5b505050506040513d6020811015610e5a57600080fd5b50511515610ea0576040805160e560020a62461bcd02815260206004820152600f6024820152600080516020611684833981519152604482015290519081900360640190fd5b610eaf8189898987898b6110dd565b5050505050505050565b60008054604080517f3a20e9df000000000000000000000000000000000000000000000000000000008152600481018590529051839283928392600160a060020a0390921691633a20e9df91602480820192869290919082900301818387803b158015610f2557600080fd5b505af1158015610f39573d6000803e3d6000fd5b505050506040513d6000823e601f3d908101601f1916820160405260e0811015610f6257600080fd5b810190808051640100000000811115610f7a57600080fd5b82016020810184811115610f8d57600080fd5b8151640100000000811182820187101715610fa757600080fd5b5050506020810151606082015160809092015190965090945092505050600160a060020a0383161515611024576040805160e560020a62461bcd02815260206004820152600960248201527f6e6f7420666f756e640000000000000000000000000000000000000000000000604482015290519081900360640190fd5b6000546040517fbee7d43300000000000000000000000000000000000000000000000000000000815260016004820181815260248301869052600160a060020a039093169263bee7d4339286918691604401828581111561108157fe5b60ff1681526020019350505050602060405180830381600087803b1580156110a857600080fd5b505af11580156110bc573d6000803e3d6000fd5b505050506040513d60208110156110d257600080fd5b505195945050505050565b6000806000806110ed878a61164a565b600254604080517f70a0823100000000000000000000000000000000000000000000000000000000815230600482015290519296508d9550600160a060020a03909116916370a08231916024808201926020929091908290030181600087803b15801561115957600080fd5b505af115801561116d573d6000803e3d6000fd5b505050506040513d602081101561118357600080fd5b50519150600160a060020a038516151561123d57604080517fad65d76d00000000000000000000000000000000000000000000000000000000815260048101869052428a0160248201523060448201529051600160a060020a0385169163ad65d76d91899160648082019260209290919082900301818588803b15801561120957600080fd5b505af115801561121d573d6000803e3d6000fd5b50505050506040513d602081101561123457600080fd5b505190506112f7565b600254604080517ff552d91b000000000000000000000000000000000000000000000000000000008152600481018990526024810187905260016044820152428b016064820152306084820152600160a060020a0392831660a482015290519185169163f552d91b9160c4808201926020929091908290030181600087803b1580156112c857600080fd5b505af11580156112dc573d6000803e3d6000fd5b505050506040513d60208110156112f257600080fd5b505190505b600254604080517f70a08231000000000000000000000000000000000000000000000000000000008152306004820152905183928592600160a060020a03909116916370a08231916024808201926020929091908290030181600087803b15801561136157600080fd5b505af1158015611375573d6000803e3d6000fd5b505050506040513d602081101561138b57600080fd5b5051031080159061139c5750838110155b15156113f2576040805160e560020a62461bcd02815260206004820152601c60248201527f6e6f7420656e6f7567682064617461636f696e20726563656976656400000000604482015290519081900360640190fd5b60025460008054604080517f095ea7b3000000000000000000000000000000000000000000000000000000008152600160a060020a039283166004820152602481018490529051919093169263095ea7b39260448083019360209390929083900390910190829087803b15801561146857600080fd5b505af115801561147c573d6000803e3d6000fd5b505050506040513d602081101561149257600080fd5b505115156114d8576040805160e560020a62461bcd02815260206004820152600f6024820152600080516020611684833981519152604482015290519081900360640190fd5b60025460008054604080517f095ea7b3000000000000000000000000000000000000000000000000000000008152600160a060020a039283166004820152602481018690529051919093169263095ea7b39260448083019360209390929083900390910190829087803b15801561154e57600080fd5b505af1158015611562573d6000803e3d6000fd5b505050506040513d602081101561157857600080fd5b505115156115be576040805160e560020a62461bcd02815260206004820152600f6024820152600080516020611684833981519152604482015290519081900360640190fd5b600054600160a060020a031663039875128b89848115156115db57fe5b6040805160e060020a63ffffffff87160281526004810194909452919004602483015233604483015251606480830192600092919082900301818387803b15801561162557600080fd5b505af1158015611639573d6000803e3d6000fd5b505050505050505050505050505050565b60008083151561165d576000915061167c565b5082820282848281151561166d57fe5b041461167857600080fd5b8091505b50929150505600617070726f76616c206661696c65640000000000000000000000000000000000a165627a7a72305820d044e8bc212efaae78140a6a7b361e7b81de699984e743190e3e2976693b5c410029",
  "source": "pragma solidity ^0.4.25;\n\ncontract IMarketplace {\n    enum ProductState {\n        NotDeployed,                // non-existent or deleted\n        Deployed                    // created or redeployed\n    }\n\n    enum Currency {\n        DATA,                       // \"token wei\" (10^-18 DATA)\n        USD                         // attodollars (10^-18 USD)\n    }\n\n    function getProduct(bytes32 id) public view returns (string name, address owner, address beneficiary, uint pricePerSecond, Currency currency, uint minimumSubscriptionSeconds, ProductState state) {}\n    function getSubscription(bytes32 productId, address subscriber) public view returns (bool isValid, uint endTimestamp) {}\n    function getPriceInData(uint subscriptionSeconds, uint price, Currency unit) public view returns (uint datacoinAmount) {}\n    function buyFor(bytes32 productId, uint subscriptionSeconds, address recipient) public {}\n}\n\ncontract IERC20Token {\n    // these functions aren't abstract since the compiler emits automatically generated getter functions as external\n    function name() public view returns (string) {}\n    function symbol() public view returns (string) {}\n    function decimals() public view returns (uint8) {}\n    function totalSupply() public view returns (uint256) {}\n    function balanceOf(address _owner) public view returns (uint256) { _owner; }\n    function allowance(address _owner, address _spender) public view returns (uint256) { _owner; _spender; }\n\n    function transfer(address _to, uint256 _value) public returns (bool success);\n    function transferFrom(address _from, address _to, uint256 _value) public returns (bool success);\n    function approve(address _spender, uint256 _value) public returns (bool success);\n}\n\n\n//from https://docs.uniswap.io/smart-contract-integration/interface:\ncontract IUniswapFactory {\n    // Public Variables\n    address public exchangeTemplate;\n    uint256 public tokenCount;\n    // Create Exchange\n    function createExchange(address token) external returns (address exchange);\n    // Get Exchange and Token Info\n    function getExchange(address token) external view returns (address exchange);\n    function getToken(address exchange) external view returns (address token);\n    function getTokenWithId(uint256 tokenId) external view returns (address token);\n    // Never use\n    function initializeFactory(address template) external;\n}\ncontract IUniswapExchange{\n    // Address of ERC20 token sold on this exchange\n    function tokenAddress() external view returns (address token);\n    // Address of Uniswap Factory\n    function factoryAddress() external view returns (address factory);\n    // Provide Liquidity\n    function addLiquidity(uint256 min_liquidity, uint256 max_tokens, uint256 deadline) external payable returns (uint256);\n    function removeLiquidity(uint256 amount, uint256 min_eth, uint256 min_tokens, uint256 deadline) external returns (uint256, uint256);\n    // Get Prices\n    function getEthToTokenInputPrice(uint256 eth_sold) external view returns (uint256 tokens_bought);\n    function getEthToTokenOutputPrice(uint256 tokens_bought) external view returns (uint256 eth_sold);\n    function getTokenToEthInputPrice(uint256 tokens_sold) external view returns (uint256 eth_bought);\n    function getTokenToEthOutputPrice(uint256 eth_bought) external view returns (uint256 tokens_sold);\n    // Trade ETH to ERC20\n    function ethToTokenSwapInput(uint256 min_tokens, uint256 deadline) external payable returns (uint256  tokens_bought);\n    function ethToTokenTransferInput(uint256 min_tokens, uint256 deadline, address recipient) external payable returns (uint256  tokens_bought);\n    function ethToTokenSwapOutput(uint256 tokens_bought, uint256 deadline) external payable returns (uint256  eth_sold);\n    function ethToTokenTransferOutput(uint256 tokens_bought, uint256 deadline, address recipient) external payable returns (uint256  eth_sold);\n    // Trade ERC20 to ETH\n    function tokenToEthSwapInput(uint256 tokens_sold, uint256 min_eth, uint256 deadline) external returns (uint256  eth_bought);\n    function tokenToEthTransferInput(uint256 tokens_sold, uint256 min_tokens, uint256 deadline, address recipient) external returns (uint256  eth_bought);\n    function tokenToEthSwapOutput(uint256 eth_bought, uint256 max_tokens, uint256 deadline) external returns (uint256  tokens_sold);\n    function tokenToEthTransferOutput(uint256 eth_bought, uint256 max_tokens, uint256 deadline, address recipient) external returns (uint256  tokens_sold);\n    // Trade ERC20 to ERC20\n    function tokenToTokenSwapInput(uint256 tokens_sold, uint256 min_tokens_bought, uint256 min_eth_bought, uint256 deadline, address token_addr) external returns (uint256  tokens_bought);\n    function tokenToTokenTransferInput(uint256 tokens_sold, uint256 min_tokens_bought, uint256 min_eth_bought, uint256 deadline, address recipient, address token_addr) external returns (uint256  tokens_bought);\n    function tokenToTokenSwapOutput(uint256 tokens_bought, uint256 max_tokens_sold, uint256 max_eth_sold, uint256 deadline, address token_addr) external returns (uint256  tokens_sold);\n    function tokenToTokenTransferOutput(uint256 tokens_bought, uint256 max_tokens_sold, uint256 max_eth_sold, uint256 deadline, address recipient, address token_addr) external returns (uint256  tokens_sold);\n    // Trade ERC20 to Custom Pool\n    function tokenToExchangeSwapInput(uint256 tokens_sold, uint256 min_tokens_bought, uint256 min_eth_bought, uint256 deadline, address exchange_addr) external returns (uint256  tokens_bought);\n    function tokenToExchangeTransferInput(uint256 tokens_sold, uint256 min_tokens_bought, uint256 min_eth_bought, uint256 deadline, address recipient, address exchange_addr) external returns (uint256  tokens_bought);\n    function tokenToExchangeSwapOutput(uint256 tokens_bought, uint256 max_tokens_sold, uint256 max_eth_sold, uint256 deadline, address exchange_addr) external returns (uint256  tokens_sold);\n    function tokenToExchangeTransferOutput(uint256 tokens_bought, uint256 max_tokens_sold, uint256 max_eth_sold, uint256 deadline, address recipient, address exchange_addr) external returns (uint256  tokens_sold);\n    // ERC20 comaptibility for liquidity tokens\n    bytes32 public name;\n    bytes32 public symbol;\n    uint256 public decimals;\n    function transfer(address _to, uint256 _value) external returns (bool);\n    function transferFrom(address _from, address _to, uint256 value) external returns (bool);\n    function approve(address _spender, uint256 _value) external returns (bool);\n    function allowance(address _owner, address _spender) external view returns (uint256);\n    function balanceOf(address _owner) external view returns (uint256);\n    // Never use\n    function setup(address token_addr) external;\n}\n\ncontract UniswapAdaptor {\n//    using SafeMath for uint256;\n\n    IMarketplace marketplace;\n    IUniswapFactory uniswap_factory;\n    IERC20Token datacoin;\n    constructor(address _marketplace_address, address _uniswap_factory_address, address _datacoin_address) public {\n        marketplace = IMarketplace(_marketplace_address);\n        uniswap_factory = IUniswapFactory(_uniswap_factory_address);\n        datacoin = IERC20Token(_datacoin_address);\n    }\n    function mul(uint256 a, uint256 b) internal pure returns (uint256) {\n        // Gas optimization: this is cheaper than requiring 'a' not being zero, but the\n        // benefit is lost if 'b' is also tested.\n        // See: https://github.com/OpenZeppelin/openzeppelin-solidity/pull/522\n        if (a == 0) {\n            return 0;\n        }\n\n        uint256 c = a * b;\n        require(c / a == b);\n\n        return c;\n    }\n    /*\n        token address 0x0 means ETH\n    */\n    \n    //returns the amount to_tokens that would be received from an input_amount of from_tokens\n    function getConversionRateInput(address from_token, address to_token, uint input_amount) public view returns (uint){\n        require(from_token != to_token, \"must specify different tokens \");\n        uint eth_amount;\n        if(from_token == 0x0){\n            eth_amount = input_amount;\n        }\n        else{\n            address from_token_exchange = uniswap_factory.getExchange(from_token);\n            require(from_token_exchange != 0x0, \"couldnt find exchange for from_token\");\n            IUniswapExchange exfrom = IUniswapExchange(from_token_exchange);\n            eth_amount = exfrom.getTokenToEthInputPrice(input_amount);\n        }\n        if(to_token == 0x0){\n            return eth_amount;\n        }\n        else{\n            address to_token_exchange = uniswap_factory.getExchange(to_token);\n            require(to_token_exchange != 0x0, \"couldnt find exchange for to_token\");\n            IUniswapExchange exto = IUniswapExchange(to_token_exchange);\n            return exto.getEthToTokenInputPrice(eth_amount);\n        }\n    }\n\n    // returns the amount from_tokens needed to buy output_amount of to_tokens\n    function getConversionRateOutput(address from_token, address to_token, uint output_amount) public view returns (uint){\n        require(from_token != to_token, \"must specify different tokens \");\n        uint eth_amount;\n        if(to_token == 0x0){\n            eth_amount = output_amount;\n        }\n        else{\n            address to_token_exchange = uniswap_factory.getExchange(to_token);\n            require(to_token_exchange != 0x0, \"couldnt find exchange for to_token\");\n            IUniswapExchange exto = IUniswapExchange(to_token_exchange);\n            eth_amount = exto.getEthToTokenOutputPrice(output_amount);\n        }\n        if(from_token == 0x0){\n            return eth_amount;\n        }\n        else{\n            address from_token_exchange = uniswap_factory.getExchange(from_token);\n            require(from_token_exchange != 0x0, \"couldnt find exchange for from_token\");\n            IUniswapExchange exfrom = IUniswapExchange(from_token_exchange);\n            return exfrom.getTokenToEthOutputPrice(eth_amount);\n        }\n    }\n    \n\n    function _getPricePerSecondData(bytes32 productId) internal view returns (uint) {\n        (, address owner,, uint pricePerSecond, IMarketplace.Currency priceCurrency,,) = marketplace.getProduct(productId);\n        require(owner != 0x0, \"not found\");\n        return marketplace.getPriceInData(1, pricePerSecond, priceCurrency);\n    }\n    function buyWithERC20(bytes32 productId, uint minSubscriptionSeconds,uint timeWindow, address erc20_address, uint amount) public {\n        require(erc20_address != 0x0, \"use buyWithETH instead\");\n        uint pricePerSecondData = _getPricePerSecondData(productId);\n        if(pricePerSecondData == 0x0){\n            //subscription is free. return payment and subscribe\n            marketplace.buyFor(productId,minSubscriptionSeconds,msg.sender);\n            return;\n        }\n        IERC20Token fromToken = IERC20Token(erc20_address);\n        require(fromToken.transferFrom(msg.sender,address(this),amount), \"must pre approve token transfer\");\n        // use the exchange of the received token. this exchange will query its factory to find\n        // the DATAcoin exchange in tokenToTokenTransferInput() in _buyWithUniswap()\n        address exadd = uniswap_factory.getExchange(erc20_address);\n        require(exadd != 0x0, \"couldnt find exchange for exchanged token\");\n        require(fromToken.approve(exadd, 0), \"approval failed\");\n        require(fromToken.approve(exadd, amount), \"approval failed\");\n        _buyWithUniswap(exadd, productId, minSubscriptionSeconds, timeWindow, pricePerSecondData, amount, erc20_address);\n    }\n\n    function buyWithETH(bytes32 productId, uint minSubscriptionSeconds,uint timeWindow) public payable{\n        uint pricePerSecondData = _getPricePerSecondData(productId);\n        if(pricePerSecondData == 0x0){\n            //subscription is free. return payment and subscribe\n            if(msg.value > 0x0){\n                msg.sender.transfer(msg.value);\n            }\n            marketplace.buyFor(productId,minSubscriptionSeconds,msg.sender);\n            return;\n        }\n        address exadd = uniswap_factory.getExchange(address(datacoin));\n        require(exadd != 0x0, \"couldnt find exchange for DATA coin\");\n        _buyWithUniswap(exadd, productId, minSubscriptionSeconds, timeWindow, pricePerSecondData, msg.value,0x0);\n    }\n    /**\n        from_token = 0x0 means ETH\n     */\n    function _buyWithUniswap(address exadd, bytes32 productId, uint minSubscriptionSeconds,uint timeWindow, uint pricePerSecondData,uint amount,address from_token) internal{\n        uint price = mul(pricePerSecondData,minSubscriptionSeconds);\n        IUniswapExchange ex = IUniswapExchange(exadd);\n        uint256 datacoin_before_transfer = datacoin.balanceOf(address(this));\n        // TransferInput should revert if it cant get at least 'price' amount of DATAcoin \n        uint256 received_datacoin;\n        if(from_token == 0x0){\n            received_datacoin = ex.ethToTokenTransferInput.value(amount)(price,now + timeWindow, address(this));\n        }\n        else{\n            received_datacoin = ex.tokenToTokenTransferInput(amount, price, 1, now + timeWindow, address(this), address(datacoin));\n        }\n        require(datacoin.balanceOf(address(this)) - datacoin_before_transfer >= received_datacoin && received_datacoin >= price, \"not enough datacoin received\");\n        require(datacoin.approve(address(marketplace),0),\"approval failed\");\n        require(datacoin.approve(address(marketplace),received_datacoin),\"approval failed\");\n        marketplace.buyFor(productId,received_datacoin / pricePerSecondData,msg.sender);\n    }\n}\n",
  "sourcePath": "/home/heynow/streamr/marketplace-contracts/contracts/UniswapAdaptor.sol",
  "compiler": {
    "name": "solc",
    "version": "0.4.25+commit.59dbf8f1.Emscripten.clang"
  },
  "schemaVersion": "2.0.2",
  "updatedAt": "2020-01-28T15:07:38.435Z"
}